{
  "_format": "hh-sol-artifact-1",
  "contractName": "LUSDTokenTester",
  "sourceName": "contracts/TestContracts/LUSDTokenTester.sol",
  "abi": [
    {
      "inputs": [
        {
          "internalType": "address",
          "name": "_troveManagerAddress",
          "type": "address"
        },
        {
          "internalType": "address",
          "name": "_stabilityPoolAddress",
          "type": "address"
        },
        {
          "internalType": "address",
          "name": "_borrowerOperationsAddress",
          "type": "address"
        }
      ],
      "stateMutability": "nonpayable",
      "type": "constructor"
    },
    {
      "anonymous": false,
      "inputs": [
        {
          "indexed": true,
          "internalType": "address",
          "name": "owner",
          "type": "address"
        },
        {
          "indexed": true,
          "internalType": "address",
          "name": "spender",
          "type": "address"
        },
        {
          "indexed": false,
          "internalType": "uint256",
          "name": "value",
          "type": "uint256"
        }
      ],
      "name": "Approval",
      "type": "event"
    },
    {
      "anonymous": false,
      "inputs": [
        {
          "indexed": false,
          "internalType": "address",
          "name": "_newBorrowerOperationsAddress",
          "type": "address"
        }
      ],
      "name": "BorrowerOperationsAddressChanged",
      "type": "event"
    },
    {
      "anonymous": false,
      "inputs": [
        {
          "indexed": false,
          "internalType": "address",
          "name": "_user",
          "type": "address"
        },
        {
          "indexed": false,
          "internalType": "uint256",
          "name": "_amount",
          "type": "uint256"
        }
      ],
      "name": "LUSDTokenBalanceUpdated",
      "type": "event"
    },
    {
      "anonymous": false,
      "inputs": [
        {
          "indexed": false,
          "internalType": "address",
          "name": "_newStabilityPoolAddress",
          "type": "address"
        }
      ],
      "name": "StabilityPoolAddressChanged",
      "type": "event"
    },
    {
      "anonymous": false,
      "inputs": [
        {
          "indexed": true,
          "internalType": "address",
          "name": "from",
          "type": "address"
        },
        {
          "indexed": true,
          "internalType": "address",
          "name": "to",
          "type": "address"
        },
        {
          "indexed": false,
          "internalType": "uint256",
          "name": "value",
          "type": "uint256"
        }
      ],
      "name": "Transfer",
      "type": "event"
    },
    {
      "anonymous": false,
      "inputs": [
        {
          "indexed": false,
          "internalType": "address",
          "name": "_troveManagerAddress",
          "type": "address"
        }
      ],
      "name": "TroveManagerAddressChanged",
      "type": "event"
    },
    {
      "inputs": [
        {
          "internalType": "address",
          "name": "owner",
          "type": "address"
        },
        {
          "internalType": "address",
          "name": "spender",
          "type": "address"
        }
      ],
      "name": "allowance",
      "outputs": [
        {
          "internalType": "uint256",
          "name": "",
          "type": "uint256"
        }
      ],
      "stateMutability": "view",
      "type": "function"
    },
    {
      "inputs": [
        {
          "internalType": "address",
          "name": "spender",
          "type": "address"
        },
        {
          "internalType": "uint256",
          "name": "amount",
          "type": "uint256"
        }
      ],
      "name": "approve",
      "outputs": [
        {
          "internalType": "bool",
          "name": "",
          "type": "bool"
        }
      ],
      "stateMutability": "nonpayable",
      "type": "function"
    },
    {
      "inputs": [
        {
          "internalType": "address",
          "name": "account",
          "type": "address"
        }
      ],
      "name": "balanceOf",
      "outputs": [
        {
          "internalType": "uint256",
          "name": "",
          "type": "uint256"
        }
      ],
      "stateMutability": "view",
      "type": "function"
    },
    {
      "inputs": [],
      "name": "borrowerOperationsAddress",
      "outputs": [
        {
          "internalType": "address",
          "name": "",
          "type": "address"
        }
      ],
      "stateMutability": "view",
      "type": "function"
    },
    {
      "inputs": [
        {
          "internalType": "address",
          "name": "_account",
          "type": "address"
        },
        {
          "internalType": "uint256",
          "name": "_amount",
          "type": "uint256"
        }
      ],
      "name": "burn",
      "outputs": [],
      "stateMutability": "nonpayable",
      "type": "function"
    },
    {
      "inputs": [
        {
          "internalType": "address",
          "name": "owner",
          "type": "address"
        },
        {
          "internalType": "address",
          "name": "spender",
          "type": "address"
        },
        {
          "internalType": "uint256",
          "name": "amount",
          "type": "uint256"
        }
      ],
      "name": "callInternalApprove",
      "outputs": [
        {
          "internalType": "bool",
          "name": "",
          "type": "bool"
        }
      ],
      "stateMutability": "nonpayable",
      "type": "function"
    },
    {
      "inputs": [],
      "name": "decimals",
      "outputs": [
        {
          "internalType": "uint8",
          "name": "",
          "type": "uint8"
        }
      ],
      "stateMutability": "view",
      "type": "function"
    },
    {
      "inputs": [
        {
          "internalType": "address",
          "name": "spender",
          "type": "address"
        },
        {
          "internalType": "uint256",
          "name": "subtractedValue",
          "type": "uint256"
        }
      ],
      "name": "decreaseAllowance",
      "outputs": [
        {
          "internalType": "bool",
          "name": "",
          "type": "bool"
        }
      ],
      "stateMutability": "nonpayable",
      "type": "function"
    },
    {
      "inputs": [],
      "name": "domainSeparator",
      "outputs": [
        {
          "internalType": "bytes32",
          "name": "",
          "type": "bytes32"
        }
      ],
      "stateMutability": "view",
      "type": "function"
    },
    {
      "inputs": [],
      "name": "getChainId",
      "outputs": [
        {
          "internalType": "uint256",
          "name": "chainID",
          "type": "uint256"
        }
      ],
      "stateMutability": "pure",
      "type": "function"
    },
    {
      "inputs": [
        {
          "internalType": "address",
          "name": "owner",
          "type": "address"
        },
        {
          "internalType": "address",
          "name": "spender",
          "type": "address"
        },
        {
          "internalType": "uint256",
          "name": "amount",
          "type": "uint256"
        },
        {
          "internalType": "uint256",
          "name": "nonce",
          "type": "uint256"
        },
        {
          "internalType": "uint256",
          "name": "deadline",
          "type": "uint256"
        }
      ],
      "name": "getDigest",
      "outputs": [
        {
          "internalType": "bytes32",
          "name": "",
          "type": "bytes32"
        }
      ],
      "stateMutability": "view",
      "type": "function"
    },
    {
      "inputs": [
        {
          "internalType": "address",
          "name": "spender",
          "type": "address"
        },
        {
          "internalType": "uint256",
          "name": "addedValue",
          "type": "uint256"
        }
      ],
      "name": "increaseAllowance",
      "outputs": [
        {
          "internalType": "bool",
          "name": "",
          "type": "bool"
        }
      ],
      "stateMutability": "nonpayable",
      "type": "function"
    },
    {
      "inputs": [
        {
          "internalType": "address",
          "name": "_account",
          "type": "address"
        },
        {
          "internalType": "uint256",
          "name": "_amount",
          "type": "uint256"
        }
      ],
      "name": "mint",
      "outputs": [],
      "stateMutability": "nonpayable",
      "type": "function"
    },
    {
      "inputs": [],
      "name": "name",
      "outputs": [
        {
          "internalType": "string",
          "name": "",
          "type": "string"
        }
      ],
      "stateMutability": "view",
      "type": "function"
    },
    {
      "inputs": [
        {
          "internalType": "address",
          "name": "owner",
          "type": "address"
        }
      ],
      "name": "nonces",
      "outputs": [
        {
          "internalType": "uint256",
          "name": "",
          "type": "uint256"
        }
      ],
      "stateMutability": "view",
      "type": "function"
    },
    {
      "inputs": [
        {
          "internalType": "address",
          "name": "owner",
          "type": "address"
        },
        {
          "internalType": "address",
          "name": "spender",
          "type": "address"
        },
        {
          "internalType": "uint256",
          "name": "amount",
          "type": "uint256"
        },
        {
          "internalType": "uint256",
          "name": "deadline",
          "type": "uint256"
        },
        {
          "internalType": "uint8",
          "name": "v",
          "type": "uint8"
        },
        {
          "internalType": "bytes32",
          "name": "r",
          "type": "bytes32"
        },
        {
          "internalType": "bytes32",
          "name": "s",
          "type": "bytes32"
        }
      ],
      "name": "permit",
      "outputs": [],
      "stateMutability": "nonpayable",
      "type": "function"
    },
    {
      "inputs": [],
      "name": "permitTypeHash",
      "outputs": [
        {
          "internalType": "bytes32",
          "name": "",
          "type": "bytes32"
        }
      ],
      "stateMutability": "view",
      "type": "function"
    },
    {
      "inputs": [
        {
          "internalType": "bytes32",
          "name": "digest",
          "type": "bytes32"
        },
        {
          "internalType": "uint8",
          "name": "v",
          "type": "uint8"
        },
        {
          "internalType": "bytes32",
          "name": "r",
          "type": "bytes32"
        },
        {
          "internalType": "bytes32",
          "name": "s",
          "type": "bytes32"
        }
      ],
      "name": "recoverAddress",
      "outputs": [
        {
          "internalType": "address",
          "name": "",
          "type": "address"
        }
      ],
      "stateMutability": "pure",
      "type": "function"
    },
    {
      "inputs": [
        {
          "internalType": "address",
          "name": "_poolAddress",
          "type": "address"
        },
        {
          "internalType": "address",
          "name": "_receiver",
          "type": "address"
        },
        {
          "internalType": "uint256",
          "name": "_amount",
          "type": "uint256"
        }
      ],
      "name": "returnFromPool",
      "outputs": [],
      "stateMutability": "nonpayable",
      "type": "function"
    },
    {
      "inputs": [
        {
          "internalType": "address",
          "name": "_sender",
          "type": "address"
        },
        {
          "internalType": "address",
          "name": "_poolAddress",
          "type": "address"
        },
        {
          "internalType": "uint256",
          "name": "_amount",
          "type": "uint256"
        }
      ],
      "name": "sendToPool",
      "outputs": [],
      "stateMutability": "nonpayable",
      "type": "function"
    },
    {
      "inputs": [],
      "name": "stabilityPoolAddress",
      "outputs": [
        {
          "internalType": "address",
          "name": "",
          "type": "address"
        }
      ],
      "stateMutability": "view",
      "type": "function"
    },
    {
      "inputs": [],
      "name": "symbol",
      "outputs": [
        {
          "internalType": "string",
          "name": "",
          "type": "string"
        }
      ],
      "stateMutability": "view",
      "type": "function"
    },
    {
      "inputs": [],
      "name": "totalSupply",
      "outputs": [
        {
          "internalType": "uint256",
          "name": "",
          "type": "uint256"
        }
      ],
      "stateMutability": "view",
      "type": "function"
    },
    {
      "inputs": [
        {
          "internalType": "address",
          "name": "recipient",
          "type": "address"
        },
        {
          "internalType": "uint256",
          "name": "amount",
          "type": "uint256"
        }
      ],
      "name": "transfer",
      "outputs": [
        {
          "internalType": "bool",
          "name": "",
          "type": "bool"
        }
      ],
      "stateMutability": "nonpayable",
      "type": "function"
    },
    {
      "inputs": [
        {
          "internalType": "address",
          "name": "sender",
          "type": "address"
        },
        {
          "internalType": "address",
          "name": "recipient",
          "type": "address"
        },
        {
          "internalType": "uint256",
          "name": "amount",
          "type": "uint256"
        }
      ],
      "name": "transferFrom",
      "outputs": [
        {
          "internalType": "bool",
          "name": "",
          "type": "bool"
        }
      ],
      "stateMutability": "nonpayable",
      "type": "function"
    },
    {
      "inputs": [],
      "name": "troveManagerAddress",
      "outputs": [
        {
          "internalType": "address",
          "name": "",
          "type": "address"
        }
      ],
      "stateMutability": "view",
      "type": "function"
    },
    {
      "inputs": [
        {
          "internalType": "address",
          "name": "_account",
          "type": "address"
        },
        {
          "internalType": "uint256",
          "name": "_amount",
          "type": "uint256"
        }
      ],
      "name": "unprotectedBurn",
      "outputs": [],
      "stateMutability": "nonpayable",
      "type": "function"
    },
    {
      "inputs": [
        {
          "internalType": "address",
          "name": "_account",
          "type": "address"
        },
        {
          "internalType": "uint256",
          "name": "_amount",
          "type": "uint256"
        }
      ],
      "name": "unprotectedMint",
      "outputs": [],
      "stateMutability": "nonpayable",
      "type": "function"
    },
    {
      "inputs": [
        {
          "internalType": "address",
          "name": "_poolAddress",
          "type": "address"
        },
        {
          "internalType": "address",
          "name": "_receiver",
          "type": "address"
        },
        {
          "internalType": "uint256",
          "name": "_amount",
          "type": "uint256"
        }
      ],
      "name": "unprotectedReturnFromPool",
      "outputs": [],
      "stateMutability": "nonpayable",
      "type": "function"
    },
    {
      "inputs": [
        {
          "internalType": "address",
          "name": "_sender",
          "type": "address"
        },
        {
          "internalType": "address",
          "name": "_poolAddress",
          "type": "address"
        },
        {
          "internalType": "uint256",
          "name": "_amount",
          "type": "uint256"
        }
      ],
      "name": "unprotectedSendToPool",
      "outputs": [],
      "stateMutability": "nonpayable",
      "type": "function"
    },
    {
      "inputs": [],
      "name": "version",
      "outputs": [
        {
          "internalType": "string",
          "name": "",
          "type": "string"
        }
      ],
      "stateMutability": "view",
      "type": "function"
    }
  ],
  "bytecode": "0x6101806040527f6e71edae12b1b97f4d1f60370fef10105fa2faae0126114a169c64845d6126c9610160523480156200003757600080fd5b5060405162001bd438038062001bd4833981810160405260608110156200005d57600080fd5b508051602082015160409092015190919082828262000085836001600160e01b036200028c16565b62000099826001600160e01b036200028c16565b620000ad816001600160e01b036200028c16565b6001600160601b0319606084901b1661010052604080516001600160a01b038516815290517f143219c9e69b09e07e095fcc889b43d8f46ca892bba65f08dc3a0050869a56789181900360200190a16001600160601b0319606083901b1661012052604080516001600160a01b038416815290517f82966d27eea39b038ee0fa30cd16532bb24f6e65d31cb58fb227aa5766cdcc7f9181900360200190a16001600160601b0319606082901b1661014052604080516001600160a01b038316815290517f3ca631ffcd2a9b5d9ae18543fc82f58eb4ca33af9e6ab01b7a8e95331e6ed9859181900360200190a1604080518082018252601981527f446563656e7472616c697a6564205377697373204672616e6300000000000000602091820152815180830190925260018252603160f81b9101527facc70a1bd20dcf7bf4f4aeca857cbe873560a7bdca603fffad687f7c5baef3f060c08190527fc89efdaa54c0f20c7adf612882df0950f5a951637e0307cdcb4c672f298b8bc660e0819052620002416001600160e01b036200034116565b60a0526200027a7f8b73c3c69bb8fe3d512ecc4cf759cc79239f7b179b0ffacaa9a75d522b39400f83836001600160e01b036200034516565b60805250620003a69650505050505050565b6001600160a01b038116620002e8576040805162461bcd60e51b815260206004820152601e60248201527f4163636f756e742063616e6e6f74206265207a65726f20616464726573730000604482015290519081900360640190fd5b803b806200033d576040805162461bcd60e51b815260206004820181905260248201527f4163636f756e7420636f64652073697a652063616e6e6f74206265207a65726f604482015290519081900360640190fd5b5050565b4690565b60008383836200035d6001600160e01b036200034116565b6040805160208082019690965280820194909452606084019290925260808301523060a0808401919091528151808403909101815260c090920190528051910120949350505050565b60805160a05160c05160e0516101005160601c6101205160601c6101405160601c610160516117956200043f60003980610832525080610a5c528061104b5280611270528061136b5250806106de5280610e315280610fd052806113d052806114385250806109055280610dff528061100d528061139d525080610d47525080610d26525080610cac525080610cdc52506117956000f3fe608060405234801561001057600080fd5b50600436106101a55760003560e01c8063519e2cee116100ef578063a457c2d711610092578063a457c2d714610561578063a9059cbb1461058d578063b655c276146103cf578063b7f8cf9b146105b9578063bb997bac146105c1578063d505accf146105f7578063dd62ed3e14610648578063f698da2514610676576101a5565b8063519e2cee1461045d57806354fd4d501461049f5780635a4d28bb146104a757806370a08231146104af5780637ecebe00146104d55780638428cf83146104fb57806395d89b411461052d5780639dc29fac14610535576101a5565b806323b872dd1161015757806323b872dd1461031b578063313ce567146103515780633408e4701461036f57806339509351146103775780633ab60582146103a35780633dc2ea6d146103cf57806340c10f19146104055780635099f99f14610431576101a5565b806303d99946146101aa57806306fdde03146101f4578063095ea7b3146102715780630b622ab21461029d57806310ce43bd146102c157806318160ddd146102db57806320c582be146102e3575b600080fd5b6101e0600480360360608110156101c057600080fd5b506001600160a01b0381358116916020810135909116906040013561067e565b604080519115158252519081900360200190f35b6101fc610692565b6040805160208082528351818301528351919283929083019185019080838360005b8381101561023657818101518382015260200161021e565b50505050905090810190601f1680156102635780820380516001836020036101000a031916815260200191505b509250505060405180910390f35b6101e06004803603604081101561028757600080fd5b506001600160a01b0381351690602001356106c6565b6102a56106dc565b604080516001600160a01b039092168252519081900360200190f35b6102c9610700565b60408051918252519081900360200190f35b6102c9610724565b610319600480360360608110156102f957600080fd5b506001600160a01b0381358116916020810135909116906040013561072a565b005b6101e06004803603606081101561033157600080fd5b506001600160a01b03813581169160208101359091169060400135610742565b6103596107ba565b6040805160ff9092168252519081900360200190f35b6102c96107bf565b6101e06004803603604081101561038d57600080fd5b506001600160a01b0381351690602001356107c3565b610319600480360360408110156103b957600080fd5b506001600160a01b0381351690602001356107ff565b610319600480360360608110156103e557600080fd5b506001600160a01b03813581169160208101359091169060400135610732565b6103196004803603604081101561041b57600080fd5b506001600160a01b03813516906020013561080d565b6103196004803603604081101561044757600080fd5b506001600160a01b038135169060200135610815565b6102c9600480360360a081101561047357600080fd5b506001600160a01b0381358116916020810135909116906040810135906060810135906080013561081f565b6101fc6108e8565b6102a5610903565b6102c9600480360360208110156104c557600080fd5b50356001600160a01b0316610927565b6102c9600480360360208110156104eb57600080fd5b50356001600160a01b0316610942565b6102a56004803603608081101561051157600080fd5b5080359060ff602082013516906040810135906060013561095d565b6101fc6109c9565b6103196004803603604081101561054b57600080fd5b506001600160a01b0381351690602001356109e7565b6101e06004803603604081101561057757600080fd5b506001600160a01b0381351690602001356109ef565b6101e0600480360360408110156105a357600080fd5b506001600160a01b038135169060200135610a44565b6102a5610a5a565b610319600480360360608110156105d757600080fd5b506001600160a01b03813581169160208101359091169060400135610a7e565b610319600480360360e081101561060d57600080fd5b506001600160a01b03813581169160208101359091169060408101359060608101359060ff6080820135169060a08101359060c00135610a86565b6102c96004803603604081101561065e57600080fd5b506001600160a01b0381358116916020013516610c7d565b6102c9610ca8565b600061068b848484610d72565b9392505050565b604080518082019091526019815278446563656e7472616c697a6564205377697373204672616e6360381b60208201525b90565b60006106d3338484610d72565b50600192915050565b7f000000000000000000000000000000000000000000000000000000000000000081565b7f6e71edae12b1b97f4d1f60370fef10105fa2faae0126114a169c64845d6126c990565b60005490565b610732610df4565b61073d838383610e90565b505050565b600061074d83610f72565b610758848484610e90565b6107b084336107ab85604051806060016040528060288152602001611648602891396001600160a01b038a166000908152600360209081526040808320338452909152902054919063ffffffff6110be16565b610d72565b5060019392505050565b601290565b4690565b3360008181526003602090815260408083206001600160a01b038716845290915281205490916106d39185906107ab908663ffffffff61115516565b61080982826111af565b5050565b610815611265565b61080982826112cc565b600061190161082c610ca8565b604080517f00000000000000000000000000000000000000000000000000000000000000006020808301919091526001600160a01b03808c16838501528a1660608301526080820189905260a0820188905260c08083018890528351808403909101815260e0830184528051908201206001600160f01b031960f09690961b9590951661010083015261010282019390935261012280820194909452815180820390940184526101420190528151910120905095945050505050565b6040805180820190915260018152603160f81b602082015290565b7f000000000000000000000000000000000000000000000000000000000000000081565b6001600160a01b031660009081526002602052604090205490565b6001600160a01b031660009081526001602052604090205490565b604080516000808252602080830180855288905260ff87168385015260608301869052608083018590529251909260019260a080820193601f1981019281900390910190855afa1580156109b5573d6000803e3d6000fd5b5050604051601f1901519695505050505050565b6040805180820190915260048152632221a42360e11b602082015290565b6107ff611360565b60006106d333846107ab856040518060600160405280602581526020016116e7602591393360009081526003602090815260408083206001600160a01b038d168452909152902054919063ffffffff6110be16565b6000610a4f83610f72565b6106d3338484610e90565b7f000000000000000000000000000000000000000000000000000000000000000081565b61073261142d565b42841015610ad4576040805162461bcd60e51b81526020600482015260166024820152754c5553443a206578706972656420646561646c696e6560501b604482015290519081900360640190fd5b6000610ade610ca8565b6001600160a01b03808a166000818152600160208181526040808420805480850190915581517f6e71edae12b1b97f4d1f60370fef10105fa2faae0126114a169c64845d6126c98185015280830196909652958e166060860152608085018d905260a085019590955260c08085018c90528551808603909101815260e08501865280519082012061190160f01b6101008601526101028501969096526101228085019690965284518085039096018652610142840180865286519682019690962095839052610162840180865286905260ff8a166101828501526101a284018990526101c284018890529351949550909390926101e2808401939192601f1981019281900390910190855afa158015610bfb573d6000803e3d6000fd5b505050602060405103519050886001600160a01b0316816001600160a01b031614610c67576040805162461bcd60e51b81526020600482015260176024820152764c5553443a20696e76616c6964207369676e617475726560481b604482015290519081900360640190fd5b610c72898989610d72565b505050505050505050565b6001600160a01b03918216600090815260036020908152604080832093909416825291909152205490565b60007f0000000000000000000000000000000000000000000000000000000000000000610cd36107bf565b1415610d0057507f00000000000000000000000000000000000000000000000000000000000000006106c3565b610d6b7f8b73c3c69bb8fe3d512ecc4cf759cc79239f7b179b0ffacaa9a75d522b39400f7f00000000000000000000000000000000000000000000000000000000000000007f0000000000000000000000000000000000000000000000000000000000000000611494565b90506106c3565b6001600160a01b038316610d8257fe5b6001600160a01b038216610d9257fe5b6001600160a01b03808416600081815260036020908152604080832094871680845294825291829020859055815185815291517f8c5be1e5ebec7d5bd14f71427d1e84f3dd0314c0f7b2291e5b200ac8c7c3b9259281900390910190a3505050565b336001600160a01b037f0000000000000000000000000000000000000000000000000000000000000000161480610e535750336001600160a01b037f000000000000000000000000000000000000000000000000000000000000000016145b610e8e5760405162461bcd60e51b815260040180806020018281038252603681526020018061152d6036913960400191505060405180910390fd5b565b6001600160a01b038316610ea057fe5b6001600160a01b038216610eb057fe5b610ef381604051806060016040528060268152602001611585602691396001600160a01b038616600090815260026020526040902054919063ffffffff6110be16565b6001600160a01b038085166000908152600260205260408082209390935590841681522054610f28908263ffffffff61115516565b6001600160a01b0380841660008181526002602090815260409182902094909455805185815290519193928716926000805160206116c783398151915292918290030190a3505050565b6001600160a01b03811615801590610f9357506001600160a01b0381163014155b610fce5760405162461bcd60e51b815260040180806020018281038252605481526020018061170c6054913960600191505060405180910390fd5b7f00000000000000000000000000000000000000000000000000000000000000006001600160a01b0316816001600160a01b03161415801561104257507f00000000000000000000000000000000000000000000000000000000000000006001600160a01b0316816001600160a01b031614155b801561108057507f00000000000000000000000000000000000000000000000000000000000000006001600160a01b0316816001600160a01b031614155b6110bb5760405162461bcd60e51b81526004018080602001828103825260578152602001806116706057913960600191505060405180910390fd5b50565b6000818484111561114d5760405162461bcd60e51b81526004018080602001828103825283818151815260200191508051906020019080838360005b838110156111125781810151838201526020016110fa565b50505050905090810190601f16801561113f5780820380516001836020036101000a031916815260200191505b509250505060405180910390fd5b505050900390565b60008282018381101561068b576040805162461bcd60e51b815260206004820152601b60248201527f536166654d6174683a206164646974696f6e206f766572666c6f770000000000604482015290519081900360640190fd5b6001600160a01b0382166111bf57fe5b61120281604051806060016040528060228152602001611563602291396001600160a01b038516600090815260026020526040902054919063ffffffff6110be16565b6001600160a01b0383166000908152600260205260408120919091555461122f908263ffffffff6114ea16565b60009081556040805183815290516001600160a01b038516916000805160206116c7833981519152919081900360200190a35050565b336001600160a01b037f00000000000000000000000000000000000000000000000000000000000000001614610e8e5760405162461bcd60e51b815260040180806020018281038252602b81526020018061161d602b913960400191505060405180910390fd5b6001600160a01b0382166112dc57fe5b6000546112ef908263ffffffff61115516565b60009081556001600160a01b03831681526002602052604090205461131a908263ffffffff61115516565b6001600160a01b03831660008181526002602090815260408083209490945583518581529351929391926000805160206116c78339815191529281900390910190a35050565b336001600160a01b037f00000000000000000000000000000000000000000000000000000000000000001614806113bf5750336001600160a01b037f000000000000000000000000000000000000000000000000000000000000000016145b806113f25750336001600160a01b037f000000000000000000000000000000000000000000000000000000000000000016145b610e8e5760405162461bcd60e51b815260040180806020018281038252604d8152602001806115ab604d913960600191505060405180910390fd5b336001600160a01b037f00000000000000000000000000000000000000000000000000000000000000001614610e8e5760405162461bcd60e51b81526004018080602001828103825260258152602001806115f86025913960400191505060405180910390fd5b60008383836114a16107bf565b6040805160208082019690965280820194909452606084019290925260808301523060a0808401919091528151808403909101815260c090920190528051910120949350505050565b600061068b83836040518060400160405280601e81526020017f536166654d6174683a207375627472616374696f6e206f766572666c6f7700008152506110be56fe4c5553443a2043616c6c6572206973206e6569746865722054726f76654d616e61676572206e6f722053746162696c697479506f6f6c45524332303a206275726e20616d6f756e7420657863656564732062616c616e636545524332303a207472616e7366657220616d6f756e7420657863656564732062616c616e63654c5553443a2043616c6c6572206973206e65697468657220426f72726f7765724f7065726174696f6e73206e6f722054726f76654d616e61676572206e6f722053746162696c697479506f6f6c4c5553443a2043616c6c6572206973206e6f74207468652053746162696c697479506f6f6c4c555344546f6b656e3a2043616c6c6572206973206e6f7420426f72726f7765724f7065726174696f6e7345524332303a207472616e7366657220616d6f756e74206578636565647320616c6c6f77616e63654c5553443a2043616e6e6f74207472616e7366657220746f6b656e73206469726563746c7920746f207468652053746162696c697479506f6f6c2c2054726f76654d616e61676572206f7220426f72726f7765724f7073ddf252ad1be2c89b69c2b068fc378daa952ba7f163c4a11628f55a4df523b3ef45524332303a2064656372656173656420616c6c6f77616e63652062656c6f77207a65726f4c5553443a2043616e6e6f74207472616e7366657220746f6b656e73206469726563746c7920746f20746865204c55534420746f6b656e20636f6e7472616374206f7220746865207a65726f2061646472657373a2646970667358221220e01112edcb892d998de94426f4a07c172e89606ec25e9a3e56e53d3ee5c3417464736f6c634300060b0033",
  "linkReferences": {},
  "deployedLinkReferences": {}
}