{
  "_format": "hh-sol-artifact-1",
  "contractName": "PriceFeed",
  "sourceName": "contracts/PriceFeed.sol",
  "abi": [
    {
      "anonymous": false,
      "inputs": [
        {
          "indexed": false,
          "internalType": "uint256",
          "name": "_lastGoodPrice",
          "type": "uint256"
        }
      ],
      "name": "LastGoodPriceUpdated",
      "type": "event"
    },
    {
      "anonymous": false,
      "inputs": [
        {
          "indexed": true,
          "internalType": "address",
          "name": "previousOwner",
          "type": "address"
        },
        {
          "indexed": true,
          "internalType": "address",
          "name": "newOwner",
          "type": "address"
        }
      ],
      "name": "OwnershipTransferred",
      "type": "event"
    },
    {
      "anonymous": false,
      "inputs": [
        {
          "indexed": false,
          "internalType": "enum PriceFeed.Status",
          "name": "newStatus",
          "type": "uint8"
        }
      ],
      "name": "PriceFeedStatusChanged",
      "type": "event"
    },
    {
      "inputs": [],
      "name": "DECIMAL_PRECISION",
      "outputs": [
        {
          "internalType": "uint256",
          "name": "",
          "type": "uint256"
        }
      ],
      "stateMutability": "view",
      "type": "function"
    },
    {
      "inputs": [],
      "name": "ETHUSD_TELLOR_REQ_ID",
      "outputs": [
        {
          "internalType": "uint256",
          "name": "",
          "type": "uint256"
        }
      ],
      "stateMutability": "view",
      "type": "function"
    },
    {
      "inputs": [],
      "name": "MAX_PRICE_DEVIATION_FROM_PREVIOUS_ROUND",
      "outputs": [
        {
          "internalType": "uint256",
          "name": "",
          "type": "uint256"
        }
      ],
      "stateMutability": "view",
      "type": "function"
    },
    {
      "inputs": [],
      "name": "MAX_PRICE_DIFFERENCE_BETWEEN_ORACLES",
      "outputs": [
        {
          "internalType": "uint256",
          "name": "",
          "type": "uint256"
        }
      ],
      "stateMutability": "view",
      "type": "function"
    },
    {
      "inputs": [],
      "name": "NAME",
      "outputs": [
        {
          "internalType": "string",
          "name": "",
          "type": "string"
        }
      ],
      "stateMutability": "view",
      "type": "function"
    },
    {
      "inputs": [],
      "name": "TARGET_DIGITS",
      "outputs": [
        {
          "internalType": "uint256",
          "name": "",
          "type": "uint256"
        }
      ],
      "stateMutability": "view",
      "type": "function"
    },
    {
      "inputs": [],
      "name": "TELLOR_DIGITS",
      "outputs": [
        {
          "internalType": "uint256",
          "name": "",
          "type": "uint256"
        }
      ],
      "stateMutability": "view",
      "type": "function"
    },
    {
      "inputs": [],
      "name": "TIMEOUT",
      "outputs": [
        {
          "internalType": "uint256",
          "name": "",
          "type": "uint256"
        }
      ],
      "stateMutability": "view",
      "type": "function"
    },
    {
      "inputs": [],
      "name": "fetchPrice",
      "outputs": [
        {
          "internalType": "uint256",
          "name": "",
          "type": "uint256"
        }
      ],
      "stateMutability": "nonpayable",
      "type": "function"
    },
    {
      "inputs": [],
      "name": "isOwner",
      "outputs": [
        {
          "internalType": "bool",
          "name": "",
          "type": "bool"
        }
      ],
      "stateMutability": "view",
      "type": "function"
    },
    {
      "inputs": [],
      "name": "lastGoodPrice",
      "outputs": [
        {
          "internalType": "uint256",
          "name": "",
          "type": "uint256"
        }
      ],
      "stateMutability": "view",
      "type": "function"
    },
    {
      "inputs": [],
      "name": "owner",
      "outputs": [
        {
          "internalType": "address",
          "name": "",
          "type": "address"
        }
      ],
      "stateMutability": "view",
      "type": "function"
    },
    {
      "inputs": [],
      "name": "priceAggregator",
      "outputs": [
        {
          "internalType": "contract AggregatorV3Interface",
          "name": "",
          "type": "address"
        }
      ],
      "stateMutability": "view",
      "type": "function"
    },
    {
      "inputs": [
        {
          "internalType": "address",
          "name": "_priceAggregatorAddress",
          "type": "address"
        },
        {
          "internalType": "address",
          "name": "_tellorCallerAddress",
          "type": "address"
        }
      ],
      "name": "setAddresses",
      "outputs": [],
      "stateMutability": "nonpayable",
      "type": "function"
    },
    {
      "inputs": [],
      "name": "status",
      "outputs": [
        {
          "internalType": "enum PriceFeed.Status",
          "name": "",
          "type": "uint8"
        }
      ],
      "stateMutability": "view",
      "type": "function"
    },
    {
      "inputs": [],
      "name": "tellorCaller",
      "outputs": [
        {
          "internalType": "contract ITellorCaller",
          "name": "",
          "type": "address"
        }
      ],
      "stateMutability": "view",
      "type": "function"
    }
  ],
  "bytecode": "0x608060405234801561001057600080fd5b50600080546001600160a01b0319163390811782556040519091907f8be0079c531659141344cd1fd0a4f28419497f9722a3daafe3b4186f6b6457e0908290a3610dd88061005f6000396000f3fe608060405234801561001057600080fd5b50600436106100e05760003560e01c80637c61e3bf116100875780637c61e3bf146101775780638da5cb5b1461017f5780638f32d59b1461018757806390107afe146101a3578063a20baee6146101d3578063a3f4df7e146101db578063ebf8e6c614610258578063f56f48f214610260576100e0565b80630490be83146100e55780630fdb11cf146100ff5780631be5c92f14610107578063200d2ed21461010f5780633078fff51461013b57806345079cb41461015f57806358a6aa88146101675780635f42caf81461016f575b600080fd5b6100ed610268565b60408051918252519081900360200190f35b6100ed61026e565b6100ed61049a565b61011761049f565b6040518082600481111561012757fe5b60ff16815260200191505060405180910390f35b6101436104a8565b604080516001600160a01b039092168252519081900360200190f35b6100ed6104b7565b6100ed6104c2565b6100ed6104ce565b6101436104d3565b6101436104e2565b61018f6104f1565b604080519115158252519081900360200190f35b6101d1600480360360408110156101b957600080fd5b506001600160a01b0381358116916020013516610502565b005b6100ed610645565b6101e3610651565b6040805160208082528351818301528351919283929083019185019080838360005b8381101561021d578181015183820152602001610205565b50505050905090810190601f16801561024a5780820380516001836020036101000a031916815260200191505b509250505060405180910390f35b6100ed610676565b6100ed61067b565b60055481565b6000739326bfa02add2366b30bacb125260af64103133173ed0616bef04d374969f302a34ae4a63882490a8c601260008160ff16600a0a90506000846001600160a01b031663feaf968c6040518163ffffffff1660e01b815260040160a06040518083038186803b1580156102e257600080fd5b505afa1580156102f6573d6000803e3d6000fd5b505050506040513d60a081101561030c57600080fd5b506020908101516040805163313ce56760e01b815290519193506000926001600160a01b0389169263313ce567926004808201939291829003018186803b15801561035657600080fd5b505afa15801561036a573d6000803e3d6000fd5b505050506040513d602081101561038057600080fd5b5051905061038f828286610681565b91506000856001600160a01b031663feaf968c6040518163ffffffff1660e01b815260040160a06040518083038186803b1580156103cc57600080fd5b505afa1580156103e0573d6000803e3d6000fd5b505050506040513d60a08110156103f657600080fd5b506020908101516040805163313ce56760e01b815290519193506000926001600160a01b038a169263313ce567926004808201939291829003018186803b15801561044057600080fd5b505afa158015610454573d6000803e3d6000fd5b505050506040513d602081101561046a57600080fd5b50519050610479828288610681565b9150818585028161048657fe5b046005819055985050505050505050505b90565b601281565b60065460ff1681565b6001546001600160a01b031681565b66b1a2bc2ec5000081565b6706f05b59d3b2000081565b600181565b6002546001600160a01b031681565b6000546001600160a01b031690565b6000546001600160a01b0316331490565b61050a6104f1565b61055b576040805162461bcd60e51b815260206004820181905260248201527f4f776e61626c653a2063616c6c6572206973206e6f7420746865206f776e6572604482015290519081900360640190fd5b610564826106d3565b61056d816106d3565b600180546001600160a01b038481166001600160a01b03199283161790925560028054928416929091169190911790556006805460ff191690556105af610d23565b6105b7610786565b90506105c1610d23565b6105d3826000015183608001516108d0565b90506105df82826109ab565b1580156105f257506105f0826109c5565b155b61062d5760405162461bcd60e51b8152600401808060200182810382526030815260200180610d736030913960400191505060405180910390fd5b610636826109ea565b5061063f610a0d565b50505050565b670de0b6b3a764000081565b60405180604001604052806009815260200168141c9a58d95199595960ba1b81525081565b600681565b61384081565b60008160ff168360ff1610156106a2575060ff82820316600a0a83026106cc565b8160ff168360ff1611156106c95781830360ff16600a0a84816106c157fe5b0490506106cc565b50825b9392505050565b6001600160a01b03811661072e576040805162461bcd60e51b815260206004820152601e60248201527f4163636f756e742063616e6e6f74206265207a65726f20616464726573730000604482015290519081900360640190fd5b803b80610782576040805162461bcd60e51b815260206004820181905260248201527f4163636f756e7420636f64652073697a652063616e6e6f74206265207a65726f604482015290519081900360640190fd5b5050565b61078e610d23565b600160009054906101000a90046001600160a01b03166001600160a01b031663313ce5676040518163ffffffff1660e01b815260040160206040518083038186803b1580156107dc57600080fd5b505afa92505050801561080157506040513d60208110156107fc57600080fd5b505160015b61080a57610497565b60ff166080820152600160009054906101000a90046001600160a01b03166001600160a01b031663feaf968c6040518163ffffffff1660e01b815260040160a06040518083038186803b15801561086057600080fd5b505afa9250505080156108a257506040513d60a081101561088057600080fd5b5080516020820151604083015160608401516080909401519293919290919060015b6108ab57610497565b506001600160501b039093168452506020830152604082015260016060820152610497565b6108d8610d23565b60015460408051639a6fc8f560e01b81526001600160501b03600019870116600482015290516001600160a01b0390921691639a6fc8f59160248082019260a092909190829003018186803b15801561093057600080fd5b505afa92505050801561097257506040513d60a081101561095057600080fd5b5080516020820151604083015160608401516080909401519293919290919060015b61097b576109a5565b506001600160501b039093168452506020830152604082015260ff82166080820152600160608201525b92915050565b60006109b683610a57565b806106cc57506106cc82610a57565b60006138406109e1836040015142610abe90919063ffffffff16565b1190505b919050565b600080610a028360200151846080015160ff16610b00565b90506109a581610b51565b600080546040516001600160a01b03909116907f8be0079c531659141344cd1fd0a4f28419497f9722a3daafe3b4186f6b6457e0908390a3600080546001600160a01b0319169055565b60008160600151610a6a575060016109e5565b81516001600160501b0316610a81575060016109e5565b60408201511580610a955750428260400151115b15610aa2575060016109e5565b6000826020015111610ab6575060016109e5565b506000919050565b60006106cc83836040518060400160405280601e81526020017f536166654d6174683a207375627472616374696f6e206f766572666c6f770000815250610b8c565b60008060128310610b2957610b22846011198501600a0a63ffffffff610c2316565b90506106cc565b60128310156106cc57610b49846012859003600a0a63ffffffff610c6516565b949350505050565b60058190556040805182815290517f4d29de21de555af78a62fc82dd4bc05e9ae5b0660a37f04729527e0f22780cd39181900360200190a150565b60008184841115610c1b5760405162461bcd60e51b81526004018080602001828103825283818151815260200191508051906020019080838360005b83811015610be0578181015183820152602001610bc8565b50505050905090810190601f168015610c0d5780820380516001836020036101000a031916815260200191505b509250505060405180910390fd5b505050900390565b60006106cc83836040518060400160405280601a81526020017f536166654d6174683a206469766973696f6e206279207a65726f000000000000815250610cbe565b600082610c74575060006109a5565b82820282848281610c8157fe5b04146106cc5760405162461bcd60e51b8152600401808060200182810382526021815260200180610d526021913960400191505060405180910390fd5b60008183610d0d5760405162461bcd60e51b8152602060048201818152835160248401528351909283926044909101919085019080838360008315610be0578181015183820152602001610bc8565b506000838581610d1957fe5b0495945050505050565b6040805160a0810182526000808252602082018190529181018290526060810182905260808101919091529056fe536166654d6174683a206d756c7469706c69636174696f6e206f766572666c6f775072696365466565643a20436861696e6c696e6b206d75737420626520776f726b696e6720616e642063757272656e74a264697066735822122059785deb32400568bbbf5065bcb08817c1da51b7b65f6560f2b8ac3de3689ca864736f6c634300060b0033",
  "linkReferences": {},
  "deployedLinkReferences": {}
}