{
  "_format": "hh-sol-artifact-1",
  "contractName": "PriceFeedTester",
  "sourceName": "contracts/TestContracts/PriceFeedTester.sol",
  "abi": [
    {
      "anonymous": false,
      "inputs": [
        {
          "indexed": false,
          "internalType": "uint256",
          "name": "_lastGoodPrice",
          "type": "uint256"
        }
      ],
      "name": "LastGoodPriceUpdated",
      "type": "event"
    },
    {
      "anonymous": false,
      "inputs": [
        {
          "indexed": true,
          "internalType": "address",
          "name": "previousOwner",
          "type": "address"
        },
        {
          "indexed": true,
          "internalType": "address",
          "name": "newOwner",
          "type": "address"
        }
      ],
      "name": "OwnershipTransferred",
      "type": "event"
    },
    {
      "anonymous": false,
      "inputs": [
        {
          "indexed": false,
          "internalType": "enum PriceFeed.Status",
          "name": "newStatus",
          "type": "uint8"
        }
      ],
      "name": "PriceFeedStatusChanged",
      "type": "event"
    },
    {
      "inputs": [],
      "name": "DECIMAL_PRECISION",
      "outputs": [
        {
          "internalType": "uint256",
          "name": "",
          "type": "uint256"
        }
      ],
      "stateMutability": "view",
      "type": "function"
    },
    {
      "inputs": [],
      "name": "ETHUSD_TELLOR_REQ_ID",
      "outputs": [
        {
          "internalType": "uint256",
          "name": "",
          "type": "uint256"
        }
      ],
      "stateMutability": "view",
      "type": "function"
    },
    {
      "inputs": [],
      "name": "MAX_PRICE_DEVIATION_FROM_PREVIOUS_ROUND",
      "outputs": [
        {
          "internalType": "uint256",
          "name": "",
          "type": "uint256"
        }
      ],
      "stateMutability": "view",
      "type": "function"
    },
    {
      "inputs": [],
      "name": "MAX_PRICE_DIFFERENCE_BETWEEN_ORACLES",
      "outputs": [
        {
          "internalType": "uint256",
          "name": "",
          "type": "uint256"
        }
      ],
      "stateMutability": "view",
      "type": "function"
    },
    {
      "inputs": [],
      "name": "NAME",
      "outputs": [
        {
          "internalType": "string",
          "name": "",
          "type": "string"
        }
      ],
      "stateMutability": "view",
      "type": "function"
    },
    {
      "inputs": [],
      "name": "TARGET_DIGITS",
      "outputs": [
        {
          "internalType": "uint256",
          "name": "",
          "type": "uint256"
        }
      ],
      "stateMutability": "view",
      "type": "function"
    },
    {
      "inputs": [],
      "name": "TELLOR_DIGITS",
      "outputs": [
        {
          "internalType": "uint256",
          "name": "",
          "type": "uint256"
        }
      ],
      "stateMutability": "view",
      "type": "function"
    },
    {
      "inputs": [],
      "name": "TIMEOUT",
      "outputs": [
        {
          "internalType": "uint256",
          "name": "",
          "type": "uint256"
        }
      ],
      "stateMutability": "view",
      "type": "function"
    },
    {
      "inputs": [],
      "name": "fetchPrice",
      "outputs": [
        {
          "internalType": "uint256",
          "name": "",
          "type": "uint256"
        }
      ],
      "stateMutability": "nonpayable",
      "type": "function"
    },
    {
      "inputs": [],
      "name": "isOwner",
      "outputs": [
        {
          "internalType": "bool",
          "name": "",
          "type": "bool"
        }
      ],
      "stateMutability": "view",
      "type": "function"
    },
    {
      "inputs": [],
      "name": "lastGoodPrice",
      "outputs": [
        {
          "internalType": "uint256",
          "name": "",
          "type": "uint256"
        }
      ],
      "stateMutability": "view",
      "type": "function"
    },
    {
      "inputs": [],
      "name": "owner",
      "outputs": [
        {
          "internalType": "address",
          "name": "",
          "type": "address"
        }
      ],
      "stateMutability": "view",
      "type": "function"
    },
    {
      "inputs": [],
      "name": "priceAggregator",
      "outputs": [
        {
          "internalType": "contract AggregatorV3Interface",
          "name": "",
          "type": "address"
        }
      ],
      "stateMutability": "view",
      "type": "function"
    },
    {
      "inputs": [
        {
          "internalType": "address",
          "name": "_priceAggregatorAddress",
          "type": "address"
        },
        {
          "internalType": "address",
          "name": "_tellorCallerAddress",
          "type": "address"
        }
      ],
      "name": "setAddresses",
      "outputs": [],
      "stateMutability": "nonpayable",
      "type": "function"
    },
    {
      "inputs": [
        {
          "internalType": "uint256",
          "name": "_lastGoodPrice",
          "type": "uint256"
        }
      ],
      "name": "setLastGoodPrice",
      "outputs": [],
      "stateMutability": "nonpayable",
      "type": "function"
    },
    {
      "inputs": [
        {
          "internalType": "enum PriceFeed.Status",
          "name": "_status",
          "type": "uint8"
        }
      ],
      "name": "setStatus",
      "outputs": [],
      "stateMutability": "nonpayable",
      "type": "function"
    },
    {
      "inputs": [],
      "name": "status",
      "outputs": [
        {
          "internalType": "enum PriceFeed.Status",
          "name": "",
          "type": "uint8"
        }
      ],
      "stateMutability": "view",
      "type": "function"
    },
    {
      "inputs": [],
      "name": "tellorCaller",
      "outputs": [
        {
          "internalType": "contract ITellorCaller",
          "name": "",
          "type": "address"
        }
      ],
      "stateMutability": "view",
      "type": "function"
    }
  ],
  "bytecode": "0x608060405234801561001057600080fd5b50600080546001600160a01b0319163390811782556040519091907f8be0079c531659141344cd1fd0a4f28419497f9722a3daafe3b4186f6b6457e0908290a3610e518061005f6000396000f3fe608060405234801561001057600080fd5b50600436106100f65760003560e01c80637c61e3bf116100925780637c61e3bf146101af5780638da5cb5b146101b75780638f32d59b146101bf57806390107afe146101db578063a20baee614610209578063a3f4df7e14610211578063c521b3f51461028e578063ebf8e6c6146102ab578063f56f48f2146102b3576100f6565b80630490be83146100fb5780630fdb11cf146101155780631be5c92f1461011d578063200d2ed2146101255780632e49d78b146101515780633078fff51461017357806345079cb41461019757806358a6aa881461019f5780635f42caf8146101a7575b600080fd5b6101036102bb565b60408051918252519081900360200190f35b6101036102c1565b6101036104ed565b61012d6104f2565b6040518082600481111561013d57fe5b60ff16815260200191505060405180910390f35b6101716004803603602081101561016757600080fd5b503560ff166104fb565b005b61017b61051c565b604080516001600160a01b039092168252519081900360200190f35b61010361052b565b610103610536565b610103610542565b61017b610547565b61017b610556565b6101c7610565565b604080519115158252519081900360200190f35b610171600480360360408110156101f157600080fd5b506001600160a01b0381358116916020013516610576565b6101036106b9565b6102196106c5565b6040805160208082528351818301528351919283929083019185019080838360005b8381101561025357818101518382015260200161023b565b50505050905090810190601f1680156102805780820380516001836020036101000a031916815260200191505b509250505060405180910390f35b610171600480360360208110156102a457600080fd5b50356106ea565b6101036106ef565b6101036106f4565b60055481565b6000739326bfa02add2366b30bacb125260af64103133173ed0616bef04d374969f302a34ae4a63882490a8c601260008160ff16600a0a90506000846001600160a01b031663feaf968c6040518163ffffffff1660e01b815260040160a06040518083038186803b15801561033557600080fd5b505afa158015610349573d6000803e3d6000fd5b505050506040513d60a081101561035f57600080fd5b506020908101516040805163313ce56760e01b815290519193506000926001600160a01b0389169263313ce567926004808201939291829003018186803b1580156103a957600080fd5b505afa1580156103bd573d6000803e3d6000fd5b505050506040513d60208110156103d357600080fd5b505190506103e28282866106fa565b91506000856001600160a01b031663feaf968c6040518163ffffffff1660e01b815260040160a06040518083038186803b15801561041f57600080fd5b505afa158015610433573d6000803e3d6000fd5b505050506040513d60a081101561044957600080fd5b506020908101516040805163313ce56760e01b815290519193506000926001600160a01b038a169263313ce567926004808201939291829003018186803b15801561049357600080fd5b505afa1580156104a7573d6000803e3d6000fd5b505050506040513d60208110156104bd57600080fd5b505190506104cc8282886106fa565b915081858502816104d957fe5b046005819055985050505050505050505b90565b601281565b60065460ff1681565b6006805482919060ff1916600183600481111561051457fe5b021790555050565b6001546001600160a01b031681565b66b1a2bc2ec5000081565b6706f05b59d3b2000081565b600181565b6002546001600160a01b031681565b6000546001600160a01b031690565b6000546001600160a01b0316331490565b61057e610565565b6105cf576040805162461bcd60e51b815260206004820181905260248201527f4f776e61626c653a2063616c6c6572206973206e6f7420746865206f776e6572604482015290519081900360640190fd5b6105d88261074c565b6105e18161074c565b600180546001600160a01b038481166001600160a01b03199283161790925560028054928416929091169190911790556006805460ff19169055610623610d9c565b61062b6107ff565b9050610635610d9c565b61064782600001518360800151610949565b90506106538282610a24565b158015610666575061066482610a3e565b155b6106a15760405162461bcd60e51b8152600401808060200182810382526030815260200180610dec6030913960400191505060405180910390fd5b6106aa82610a63565b506106b3610a86565b50505050565b670de0b6b3a764000081565b60405180604001604052806009815260200168141c9a58d95199595960ba1b81525081565b600555565b600681565b61384081565b60008160ff168360ff16101561071b575060ff82820316600a0a8302610745565b8160ff168360ff1611156107425781830360ff16600a0a848161073a57fe5b049050610745565b50825b9392505050565b6001600160a01b0381166107a7576040805162461bcd60e51b815260206004820152601e60248201527f4163636f756e742063616e6e6f74206265207a65726f20616464726573730000604482015290519081900360640190fd5b803b806107fb576040805162461bcd60e51b815260206004820181905260248201527f4163636f756e7420636f64652073697a652063616e6e6f74206265207a65726f604482015290519081900360640190fd5b5050565b610807610d9c565b600160009054906101000a90046001600160a01b03166001600160a01b031663313ce5676040518163ffffffff1660e01b815260040160206040518083038186803b15801561085557600080fd5b505afa92505050801561087a57506040513d602081101561087557600080fd5b505160015b610883576104ea565b60ff166080820152600160009054906101000a90046001600160a01b03166001600160a01b031663feaf968c6040518163ffffffff1660e01b815260040160a06040518083038186803b1580156108d957600080fd5b505afa92505050801561091b57506040513d60a08110156108f957600080fd5b5080516020820151604083015160608401516080909401519293919290919060015b610924576104ea565b506001600160501b0390931684525060208301526040820152600160608201526104ea565b610951610d9c565b60015460408051639a6fc8f560e01b81526001600160501b03600019870116600482015290516001600160a01b0390921691639a6fc8f59160248082019260a092909190829003018186803b1580156109a957600080fd5b505afa9250505080156109eb57506040513d60a08110156109c957600080fd5b5080516020820151604083015160608401516080909401519293919290919060015b6109f457610a1e565b506001600160501b039093168452506020830152604082015260ff82166080820152600160608201525b92915050565b6000610a2f83610ad0565b80610745575061074582610ad0565b6000613840610a5a836040015142610b3790919063ffffffff16565b1190505b919050565b600080610a7b8360200151846080015160ff16610b79565b9050610a1e81610bca565b600080546040516001600160a01b03909116907f8be0079c531659141344cd1fd0a4f28419497f9722a3daafe3b4186f6b6457e0908390a3600080546001600160a01b0319169055565b60008160600151610ae357506001610a5e565b81516001600160501b0316610afa57506001610a5e565b60408201511580610b0e5750428260400151115b15610b1b57506001610a5e565b6000826020015111610b2f57506001610a5e565b506000919050565b600061074583836040518060400160405280601e81526020017f536166654d6174683a207375627472616374696f6e206f766572666c6f770000815250610c05565b60008060128310610ba257610b9b846011198501600a0a63ffffffff610c9c16565b9050610745565b601283101561074557610bc2846012859003600a0a63ffffffff610cde16565b949350505050565b60058190556040805182815290517f4d29de21de555af78a62fc82dd4bc05e9ae5b0660a37f04729527e0f22780cd39181900360200190a150565b60008184841115610c945760405162461bcd60e51b81526004018080602001828103825283818151815260200191508051906020019080838360005b83811015610c59578181015183820152602001610c41565b50505050905090810190601f168015610c865780820380516001836020036101000a031916815260200191505b509250505060405180910390fd5b505050900390565b600061074583836040518060400160405280601a81526020017f536166654d6174683a206469766973696f6e206279207a65726f000000000000815250610d37565b600082610ced57506000610a1e565b82820282848281610cfa57fe5b04146107455760405162461bcd60e51b8152600401808060200182810382526021815260200180610dcb6021913960400191505060405180910390fd5b60008183610d865760405162461bcd60e51b8152602060048201818152835160248401528351909283926044909101919085019080838360008315610c59578181015183820152602001610c41565b506000838581610d9257fe5b0495945050505050565b6040805160a0810182526000808252602082018190529181018290526060810182905260808101919091529056fe536166654d6174683a206d756c7469706c69636174696f6e206f766572666c6f775072696365466565643a20436861696e6c696e6b206d75737420626520776f726b696e6720616e642063757272656e74a2646970667358221220b7eb1de7c0f2bf259977028de4a17ad266ce592e104fc777b892dc6986347d8f64736f6c634300060b0033",
  "linkReferences": {},
  "deployedLinkReferences": {}
}